:1000000010C028C047C126C025C024C0C6C022C019
:1000100021C079C01FC01EC01DC01CC01BC01AC09B
:1000200019C011241FBECFEDCDBF10E0A0E6B0E097
:10003000E2E1F4E002C005900D92AA39B107D9F7C8
:1000400010E0AAE9B0E001C01D92AF39B107E1F7B5
:1000500088D1DDC1D5CF89B3809581700895282FCF
:10006000362F442389F0862F90E063E070E0B2D110
:10007000FC01E20FF11DEE0FFF1FEE0FFF1FEB580B
:10008000FF4F8181816001C081E08BBB442381F0FF
:10009000832F90E063E070E09DD1FC01E20FF11D41
:1000A000EE0FFF1FEE0FFF1FEB58FF4F808101C0C7
:1000B00080E08ABB442381F0832F90E063E070E00E
:1000C00089D1FC01E20FF11DEE0FFF1FEE0FFF1FA4
:1000D000EB58FF4F838101C080E088BB442381F04F
:1000E000832F90E063E070E075D1820F911D880F3F
:1000F000991F880F991F8B589F4FFC01828101C067
:1001000080E087BB08951F920F920FB60F921124C3
:100110002F933F934F935F936F937F938F939F930F
:10012000AF93BF93EF93FF9380919B008F5F80937A
:100130009B00833058F010929B0080919A008F5F53
:1001400080939A00833010F010929A0060919A0088
:1001500090919E0080919B00E62FF0E0E05AFF4FC7
:10016000E90FF11D21E030E0082E01C0220F0A94B2
:10017000EAF74081422373DFFF91EF91BF91AF9186
:100180009F918F917F916F915F914F913F912F91AF
:100190000F900FBE0F901F9018951F920F920FB6E1
:1001A0000F9211246F937F938F939F9380919C0064
:1001B00090919D008230910539F08330910599F03E
:1001C000019709F05EC048C081E090E09BBD8ABD08
:1001D00080919E008F5F80939E00823108F451C011
:1001E00010929E004EC080919E008F5F80939E0073
:1001F000823110F010929E008AB59BB505969BBD8A
:100200008ABD8AB59BB5893C9105D8F180919E0045
:1002100063E0F1D0911135C080E197E29BBD8ABDCA
:100220001DBC1CBC8DE3E19B04C0815011F000009B
:10023000FACFE1990AC08CB38F7C8CBB80919E0071
:100240008DBB1FBA1EBAE29AE19A81E090E09093CA
:100250009D0080939C0015C083B7887F83BF8EB5B7
:10026000887F8EBD08B601FE03C088B7826088BF54
:1002700081E08BBB1ABA18BA17BA10929D0010927F
:100280009C009F918F917F916F910F900FBE0F9067
:100290001F9018951F920F920FB60F9211242F9353
:1002A0003F934F935F936F937F938F939F93AF93FE
:1002B000BF93CF93DF93EF93FF93C0919C00D091B6
:1002C0009D00C130D105F9F030F0C230D10509F1FF
:1002D000239729F133C0BFDE882381F183B7887F5C
:1002E00083BF83B7846083BF80E197E29BBD8ABDF3
:1002F00081E090E09DBD8CBD2EB5287F2EBD2EB532
:1003000025602EBD17C0A7DE8823C1F0DBBDCABDA6
:100310000DC0A1DE811112C083E090E00BC09BDE16
:10032000882361F081E090E09BBD8ABD1DBC1CBCB0
:1003300082E090E090939D0080939C00FF91EF916C
:10034000DF91CF91BF91AF919F918F917F916F91ED
:100350005F914F913F912F910F900FBE0F901F9083
:10036000189583E080B980E18BBF81E082BB22E0F9
:1003700020BF83BF12BE86BF29BF1FBC89E08EBDD0
:100380001DBC1CBC8FEF93E09BBD8ABD2CB91FBA6E
:100390001EBAE09A8DB380939E0080919E008231B8
:1003A00010F010929E0010929D0010929C0081E02F
:1003B0008BBB1ABA18BA17BA789420E230E380914E
:1003C0009C0090919D00892B11F435BF01C025BF81
:1003D0008895F5CF0024552704C0080E591F880FB3
:1003E000991F009729F076956795B8F37105B9F7CD
:1003F000802D952F0895991B79E004C0991F9617B9
:1004000008F0961B881F7A95C9F780950895F8948F
:02041000FFCF1C
:1004120000020004000101020405000505020505B1
:1004220005050002001810000024200000404004CE
:1004320000180800002404000040000404302000DA
:0A0442000060400000C080000000D0
:00000001FF
