:1000000010C028C04CC126C025C024C0CBC022C00F
:1000100021C07CC01FC01EC01DC01CC01BC01AC098
:1000200019C011241FBECFEDCDBF10E0A0E6B0E097
:10003000E6E2F4E002C005900D92AA39B107D9F7C3
:1000400020E0AAE9B0E001C01D92AF39B207E1F7A4
:1000500091D1E7C1D5CF89B383FB882780F991E09F
:1000600089270895282F362F442389F0862F90E082
:1000700063E070E0B9D1820F911DFC01EE0FFF1F0C
:10008000EE0FFF1FEB58FF4F8181886001C088E0B1
:100090008BBB442381F0832F90E063E070E0A4D118
:1000A000820F911DFC01EE0FFF1FEE0FFF1FEB589B
:1000B000FF4F808101C080E08ABB442381F0832F01
:1000C00090E063E070E090D1820F911DFC01EE0F93
:1000D000FF1FEE0FFF1FEB58FF4F838101C080E031
:1000E00088BB442381F0832F90E063E070E07CD1F3
:1000F000820F911DFC01EE0FFF1FEE0FFF1FEB584B
:10010000FF4F828101C080E087BB08951F920F924C
:100110000FB60F9211242F933F934F935F936F93DA
:100120007F938F939F93AF93BF93EF93FF938091B0
:100130009B008F5F833018F480939B000CC010925B
:100140009B0080919A008F5F833018F480939A000F
:1001500002C010929A0060919A0090919E00809146
:100160009B00E62FF0E0E05AFF4FE90FF11D41E060
:1001700050E0082E01C0440F0A94EAF79081492309
:1001800071DFFF91EF91BF91AF919F918F917F911F
:100190006F915F914F913F912F910F900FBE0F90F4
:1001A0001F9018951F920F920FB60F9211246F9304
:1001B0007F938F939F9380919C0090919D008230BC
:1001C000910539F08330910599F0019709F05EC0EF
:1001D00048C081E090E09BBD8ABD80919E008F5F0A
:1001E00080939E00823108F451C010929E004EC050
:1001F00080919E008F5F80939E00823110F010925C
:100200009E008AB59BB505969BBD8ABD8AB59BB5F8
:10021000893C9105D8F180919E0063E0F6D0911160
:1002200035C080E197E29BBD8ABD1DBC1CBC8DE33F
:10023000E19B04C0815011F00000FACFE1990AC09F
:100240008CB38F7C8CBB80919E008DBB1FBA1EBA75
:10025000E29AE19A81E090E090939D0080939C0067
:1002600015C083B7887F83BF8EB5887F8EBD08B6E3
:1002700001FE03C088B7826088BF88E08BBB1ABAD2
:1002800018BA17BA10929D0010929C009F918F91FE
:100290007F916F910F900FBE0F901F9018951F9236
:1002A0000F920FB60F9211242F933F934F935F93AA
:1002B0006F937F938F939F93AF93BF93CF93DF936E
:1002C000EF93FF93C0919C00D0919D00C130D10568
:1002D00019F130F0C230D10529F1239749F137C027
:1002E000BADE8823A1F183B7887F83BF83B7846098
:1002F00083BF80E197E29BBD8ABD21E030E03DBD38
:100300002CBD8EB5887F8EBD8EB585608EBD309339
:100310009D0020939C001BC09EDE8823C1F0DBBDA6
:10032000CABD0DC098DE811112C083E090E00BC001
:1003300092DE882361F081E090E09BBD8ABD1DBC08
:100340001CBC82E090E090939D0080939C00FF9104
:10035000EF91DF91CF91BF91AF919F918F917F915D
:100360006F915F914F913F912F910F900FBE0F9022
:100370001F90189583E080B980E18BBF88E082BB35
:1003800082E080BF91E093BF12BE96BF89BF1FBCC1
:1003900099E09EBD1DBC1CBC2FEF33E03BBD2ABDC8
:1003A0008CB91FBA1EBAE09A8DB380939E008091DB
:1003B0009E00823110F010929E0010929D001092CB
:1003C0009C0088E08BBB1ABA18BA17BA789480E2FE
:1003D00090E320919C0030919D00232B11F495BF58
:1003E00001C085BF8895F5CF0024552704C0080EAD
:1003F000591F880F991F009729F076956795B8F3D4
:100400007105B9F7802D952F0895991B79E004C0E7
:10041000991F961708F0961B881F7A95C9F7809543
:060420000895F894FFCFDF
:10042600000200040001010204050005050205059D
:1004360005050002000302000030100000C0400065
:10044600000301000030200000C0800000121000F0
:0A04560000504000004000040400C4
:00000001FF
